{
  "contractName": "SupplyChain",
  "abi": [
    {
      "inputs": [],
      "stateMutability": "nonpayable",
      "type": "constructor"
    },
    {
      "anonymous": false,
      "inputs": [
        {
          "indexed": false,
          "internalType": "uint256",
          "name": "skuCount",
          "type": "uint256"
        }
      ],
      "name": "LogForSale",
      "type": "event"
    },
    {
      "anonymous": false,
      "inputs": [
        {
          "indexed": false,
          "internalType": "uint256",
          "name": "sku",
          "type": "uint256"
        }
      ],
      "name": "LogReceived",
      "type": "event"
    },
    {
      "anonymous": false,
      "inputs": [
        {
          "indexed": false,
          "internalType": "uint256",
          "name": "sku",
          "type": "uint256"
        }
      ],
      "name": "LogShipped",
      "type": "event"
    },
    {
      "anonymous": false,
      "inputs": [
        {
          "indexed": false,
          "internalType": "uint256",
          "name": "sku",
          "type": "uint256"
        }
      ],
      "name": "LogSold",
      "type": "event"
    },
    {
      "inputs": [
        {
          "internalType": "uint256",
          "name": "",
          "type": "uint256"
        }
      ],
      "name": "items",
      "outputs": [
        {
          "internalType": "string",
          "name": "name",
          "type": "string"
        },
        {
          "internalType": "uint256",
          "name": "sku",
          "type": "uint256"
        },
        {
          "internalType": "uint256",
          "name": "price",
          "type": "uint256"
        },
        {
          "internalType": "enum SupplyChain.State",
          "name": "state",
          "type": "uint8"
        },
        {
          "internalType": "address payable",
          "name": "seller",
          "type": "address"
        },
        {
          "internalType": "address payable",
          "name": "buyer",
          "type": "address"
        }
      ],
      "stateMutability": "view",
      "type": "function",
      "constant": true
    },
    {
      "inputs": [],
      "name": "owner",
      "outputs": [
        {
          "internalType": "address",
          "name": "",
          "type": "address"
        }
      ],
      "stateMutability": "view",
      "type": "function",
      "constant": true
    },
    {
      "inputs": [],
      "name": "skuCount",
      "outputs": [
        {
          "internalType": "uint256",
          "name": "",
          "type": "uint256"
        }
      ],
      "stateMutability": "view",
      "type": "function",
      "constant": true
    },
    {
      "inputs": [
        {
          "internalType": "string",
          "name": "_name",
          "type": "string"
        },
        {
          "internalType": "uint256",
          "name": "_price",
          "type": "uint256"
        }
      ],
      "name": "addItem",
      "outputs": [
        {
          "internalType": "bool",
          "name": "",
          "type": "bool"
        }
      ],
      "stateMutability": "nonpayable",
      "type": "function"
    },
    {
      "inputs": [
        {
          "internalType": "uint256",
          "name": "sku",
          "type": "uint256"
        }
      ],
      "name": "buyItem",
      "outputs": [],
      "stateMutability": "payable",
      "type": "function",
      "payable": true
    },
    {
      "inputs": [
        {
          "internalType": "uint256",
          "name": "sku",
          "type": "uint256"
        }
      ],
      "name": "shipItem",
      "outputs": [],
      "stateMutability": "nonpayable",
      "type": "function"
    },
    {
      "inputs": [
        {
          "internalType": "uint256",
          "name": "sku",
          "type": "uint256"
        }
      ],
      "name": "receiveItem",
      "outputs": [],
      "stateMutability": "nonpayable",
      "type": "function"
    }
  ],
  "bytecode": "0x608060405234801561001057600080fd5b50336000806101000a81548173ffffffffffffffffffffffffffffffffffffffff021916908373ffffffffffffffffffffffffffffffffffffffff1602179055506000600181905550610c38806100686000396000f3fe6080604052600436106100705760003560e01c8063a26be9991161004e578063a26be999146101c9578063bfb231d214610204578063e7fb74c714610312578063f61c899a1461034057610070565b8063227024731461007557806362d6bbdf146100a05780638da5cb5b14610188575b600080fd5b34801561008157600080fd5b5061008a61037b565b6040518082815260200191505060405180910390f35b3480156100ac57600080fd5b50610170600480360360408110156100c357600080fd5b81019080803590602001906401000000008111156100e057600080fd5b8201836020820111156100f257600080fd5b8035906020019184600183028401116401000000008311171561011457600080fd5b91908080601f016020809104026020016040519081016040528093929190818152602001838380828437600081840152601f19601f82011690508083019250505050505050919291929080359060200190929190505050610381565b60405180821515815260200191505060405180910390f35b34801561019457600080fd5b5061019d610539565b604051808273ffffffffffffffffffffffffffffffffffffffff16815260200191505060405180910390f35b3480156101d557600080fd5b50610202600480360360208110156101ec57600080fd5b810190808035906020019092919050505061055d565b005b34801561021057600080fd5b5061023d6004803603602081101561022757600080fd5b8101908080359060200190929190505050610687565b604051808060200187815260200186815260200185600381111561025d57fe5b81526020018473ffffffffffffffffffffffffffffffffffffffff1681526020018373ffffffffffffffffffffffffffffffffffffffff168152602001828103825288818151815260200191508051906020019080838360005b838110156102d25780820151818401526020810190506102b7565b50505050905090810190601f1680156102ff5780820380516001836020036101000a031916815260200191505b5097505050505050505060405180910390f35b61033e6004803603602081101561032857600080fd5b81019080803590602001909291905050506107a8565b005b34801561034c57600080fd5b506103796004803603602081101561036357600080fd5b8101908080359060200190929190505050610a3c565b005b60015481565b60007f4627c48065af2a9648cbecdd4b9da340c00e501243cd49a8a71c30c987e8b7616001546040518082815260200191505060405180910390a16040518060c001604052808481526020016001548152602001838152602001600060038111156103e857fe5b81526020013373ffffffffffffffffffffffffffffffffffffffff168152602001600073ffffffffffffffffffffffffffffffffffffffff168152506002600060015481526020019081526020016000206000820151816000019080519060200190610455929190610b65565b50602082015181600101556040820151816002015560608201518160030160006101000a81548160ff0219169083600381111561048e57fe5b021790555060808201518160030160016101000a81548173ffffffffffffffffffffffffffffffffffffffff021916908373ffffffffffffffffffffffffffffffffffffffff16021790555060a08201518160040160006101000a81548173ffffffffffffffffffffffffffffffffffffffff021916908373ffffffffffffffffffffffffffffffffffffffff16021790555090505060018054016001819055506001905092915050565b60008054906101000a900473ffffffffffffffffffffffffffffffffffffffff1681565b806002600381111561056b57fe5b6002600083815260200190815260200160002060030160009054906101000a900460ff16600381111561059a57fe5b146105a457600080fd5b6002600083815260200190815260200160002060040160009054906101000a900473ffffffffffffffffffffffffffffffffffffffff168073ffffffffffffffffffffffffffffffffffffffff163373ffffffffffffffffffffffffffffffffffffffff161461061357600080fd5b60036002600085815260200190815260200160002060030160006101000a81548160ff0219169083600381111561064657fe5b02179055507f5a98827d06afe0e04647b3aed26f1ffb77171ad9ac41603c4ef623a6638798c1836040518082815260200191505060405180910390a1505050565b6002602052806000526040600020600091509050806000018054600181600116156101000203166002900480601f0160208091040260200160405190810160405280929190818152602001828054600181600116156101000203166002900480156107335780601f1061070857610100808354040283529160200191610733565b820191906000526020600020905b81548152906001019060200180831161071657829003601f168201915b5050505050908060010154908060020154908060030160009054906101000a900460ff16908060030160019054906101000a900473ffffffffffffffffffffffffffffffffffffffff16908060040160009054906101000a900473ffffffffffffffffffffffffffffffffffffffff16905086565b80600073ffffffffffffffffffffffffffffffffffffffff166002600083815260200190815260200160002060030160019054906101000a900473ffffffffffffffffffffffffffffffffffffffff1673ffffffffffffffffffffffffffffffffffffffff16141561081957600080fd5b60026000838152602001908152602001600020600201548034101561083d57600080fd5b826002600085815260200190815260200160002060030160019054906101000a900473ffffffffffffffffffffffffffffffffffffffff1673ffffffffffffffffffffffffffffffffffffffff166108fc60026000878152602001908152602001600020600201549081150290604051600060405180830381858888f193505050501580156108d0573d6000803e3d6000fd5b50336002600086815260200190815260200160002060040160006101000a81548173ffffffffffffffffffffffffffffffffffffffff021916908373ffffffffffffffffffffffffffffffffffffffff16021790555060016002600086815260200190815260200160002060030160006101000a81548160ff0219169083600381111561095957fe5b02179055507fe64ca8c671e48636f85f3008c1dd538e36bfa74fb6f2790b56b72fcc33b879ef846040518082815260200191505060405180910390a1600060026000838152602001908152602001600020600201549050600081340390506002600084815260200190815260200160002060040160009054906101000a900473ffffffffffffffffffffffffffffffffffffffff1673ffffffffffffffffffffffffffffffffffffffff166108fc829081150290604051600060405180830381858888f19350505050158015610a33573d6000803e3d6000fd5b50505050505050565b8060016003811115610a4a57fe5b6002600083815260200190815260200160002060030160009054906101000a900460ff166003811115610a7957fe5b14610a8357600080fd5b6002600083815260200190815260200160002060030160019054906101000a900473ffffffffffffffffffffffffffffffffffffffff168073ffffffffffffffffffffffffffffffffffffffff163373ffffffffffffffffffffffffffffffffffffffff1614610af257600080fd5b600280600085815260200190815260200160002060030160006101000a81548160ff02191690836003811115610b2457fe5b02179055507feaf695929fec8154f0eafe7248c0e16855eb9ad09e623be92f669e544d53e856836040518082815260200191505060405180910390a1505050565b828054600181600116156101000203166002900490600052602060002090601f016020900481019282601f10610ba657805160ff1916838001178555610bd4565b82800160010185558215610bd4579182015b82811115610bd3578251825591602001919060010190610bb8565b5b509050610be19190610be5565b5090565b5b80821115610bfe576000816000905550600101610be6565b509056fea264697066735822122056bb2f93ed68d1530ae5948c4ca2b4acaecea1742bf1537d2e705c9f5cfee77664736f6c634300060c0033",
  "immutableReferences": {},
  "source": "// SPDX-License-Identifier: MIT\n/*\n    This exercise has been updated to use Solidity version 0.6\n    Breaking changes from 0.5 to 0.6 can be found here: \n    https://solidity.readthedocs.io/en/v0.6.12/060-breaking-changes.html\n*/\n\npragma solidity >=0.6.0 <0.7.0;\n\ncontract SupplyChain {\n\n  /* set owner - DONE */\n  address public owner;\n\n  /* Add a variable called skuCount to track the most recent sku # - DONE */\n  uint public skuCount;\n\n  /* Add a line that creates a public mapping that maps the SKU (a number) to an Item.\n     Call this mappings items - DONE\n  */\n  mapping (uint => Item) public items;\n\n  /* Add a line that creates an enum called State. This should have 4 states\n    ForSale\n    Sold\n    Shipped\n    Received\n    (declaring them in this order is important for testing) - DONE\n  */\n  enum State {ForSale, Sold, Shipped, Received} \n  State state;\n\n  /* Create a struct named Item.\n    Here, add a name, sku, price, state, seller, and buyer\n    We've left you to figure out what the appropriate types are,\n    if you need help you can ask around :)\n    Be sure to add \"payable\" to addresses that will be handling value transfer - DONE\n  */\n  struct Item {\n    string  name;           // name of item\n    uint    sku;            // stock keeping unit reference number\n    uint    price;          // unit price\n    State   state;          // (enum) state of sku\n    address payable seller;\n    address payable buyer;\n  }\n\n  /* Create 4 events with the same name as each possible State (see above)\n    Prefix each event with \"Log\" for clarity, so the forSale event will be called \"LogForSale\"\n    Each event should accept one argument, the sku - DONE */\n//    event LogForSale(string indexed name, uint sku);  // here how would be my preferred events :-)\n//    event LogSold(string indexed name, uint sku, address indexed buyer);\n//    event LogShipped(string indexed name, uint sku, address indexed buyer);\n//    event LogReceived(string indexed name, uint sku, address indexed buyer);\n    event LogForSale (uint skuCount);    // events as specified in assignment\n    event LogSold (uint sku);\n    event LogShipped (uint sku);\n    event LogReceived (uint sku);\n\n/* Create a modifer that checks if the msg.sender is the owner of the contract - DONE */\n    modifier isOwner { require(msg.sender == owner);_;}\n    modifier verifyCaller (address _address) { require (msg.sender == _address); _;}\n    modifier paidEnough (uint _price) { require(msg.value >= _price); _;}\n    modifier checkValue (uint _sku) {\n        //refund them after pay for item (why it is before, _ checks for logic before func)\n        _;\n        uint _price = items[_sku].price;\n        uint amountToRefund = msg.value - _price;\n        items[_sku].buyer.transfer(amountToRefund);\n    }\n\n  /* For each of the following modifiers, use what you learned about modifiers\n   to give them functionality. For example, the forSale modifier should require\n   that the item with the given sku has the state ForSale. \n   Note that the uninitialized Item.State is 0, which is also the index of the ForSale value,\n   so checking that Item.State == ForSale is not sufficient to check that an Item is for sale.\n   Hint: What item properties will be non-zero when an Item has been added?\n   - Answer: see addItem(), it sets address of seller\n   - DONE\n   \n   PS: Uncomment the modifier but keep the name for testing purposes! - DONE \n   */\n  \n  \n    modifier forSale (uint _sku) { require (items[_sku].seller != address(0)); _;}\n    modifier sold (uint _sku) { require (items[_sku].state == State.Sold); _;}\n    modifier shipped (uint _sku) { require (items[_sku].state == State.Shipped); _;}\n    modifier received (uint _sku) { require (items[_sku].state == State.Received); _;}\n\n\n  constructor() public {\n    /* Here, set the owner as the person who instantiated the contract\n       and set your skuCount to 0. - DONE */\n       owner = msg.sender;\n       skuCount = 0;        // by default uint is set to 0, no?\n  }\n\n  function addItem(string memory _name, uint _price) public returns(bool){\n    emit LogForSale(skuCount);\n    items[skuCount] = Item({name: _name, sku: skuCount,\n        price: _price, state: State.ForSale, seller: msg.sender, buyer: address(0)});\n    skuCount = skuCount + 1;\n    return true;\n  }\n\n  /* Add a keyword so the function can be paid (DONE). This function should transfer money\n    to the seller (DONE), set the buyer as the person who called this transaction (DONE), and set the state\n    to Sold (DONE). Be careful, this function should use 3 modifiers to check if the item is for sale (DONE),\n    if the buyer paid enough (DONE), and check the value after the function is called to make sure the buyer is\n    refunded any excess ether sent (DONE). Remember to call the event associated with this function! (DONE)*/\n    function buyItem (uint sku)\n    public payable forSale(sku) paidEnough(items[sku].price) checkValue (sku){\n        items[sku].seller.transfer(items[sku].price);   // pay seller\n        items[sku].buyer = msg.sender;                  // set buyer\n        items[sku].state = State.Sold;                  // set state\n        emit LogSold(sku);\n    }\n\n  /* Add 2 modifiers to check if the item is sold already (DONE), and that the person calling this function\n    is the seller (DONE). Change the state of the item to shipped (DONE).\n    Remember to call the event associated with this function! (DONE) */\n    function shipItem (uint sku)\n    public sold(sku) verifyCaller(items[sku].seller){\n        items[sku].state = State.Shipped;\n        emit LogShipped(sku);\n    }\n\n  /* Add 2 modifiers to check if the item is shipped already (DONE), and that the person calling this function\n    is the buyer (DONE). Change the state of the item to received (DONE).\n    Remember to call the event associated with this function! (DONE)*/\n    function receiveItem(uint sku)\n    public shipped(sku) verifyCaller(items[sku].buyer) {\n        items[sku].state = State.Received;\n        emit LogReceived(sku);\n    }\n\n  /* We have these functions completed so we can run tests, just ignore it :) */\n  \n/*  function fetchItem(uint _sku) public view returns (string memory name, uint sku, uint price, uint state, address seller, address buyer) {\n    name = items[_sku].name;\n    sku = items[_sku].sku;\n    price = items[_sku].price;\n    state = uint(items[_sku].state);\n    seller = items[_sku].seller;\n    buyer = items[_sku].buyer;\n    return (name, sku, price, state, seller, buyer);\n  }*/ \n\n}\n",
  "sourcePath": "/Users/kvutien/Dropbox/IBISA VTK/ConsenSys Academy 2020/Module7/supply-chain-exercise-kvutien/contracts/SupplyChain.sol",
  "compiler": {
    "name": "solc",
    "version": "0.6.12+commit.27d51765.Emscripten.clang"
  },
  "schemaVersion": "3.2.5",
  "updatedAt": "2020-11-20T11:31:56.117Z",
  "networkType": "ethereum",
  "devdoc": {
    "kind": "dev",
    "methods": {},
    "version": 1
  },
  "userdoc": {
    "kind": "user",
    "methods": {},
    "version": 1
  }
}